:020000040800F2
:1000000000C00020050C0008F10B0008F30B0008ED
:10001000F50B0008F70B0008F90B000800000000C2
:10002000000000000000000000000000FB0B0008C2
:10003000FD0B000800000000FF0B0008010C000889
:10004000490C0008490C0008490C0008490C00083C
:10005000490C0008490C0008490C0008490C00082C
:10006000490C0008490C0008490C0008490C00081C
:10007000490C0008490C0008490C0008490C00080C
:10008000490C0008490C0008490C0008490C0008FC
:10009000490C0008490C0008490C0008490C0008EC
:1000A000490C0008490C0008490C0008490C0008DC
:1000B000490C0008490C0008490C0008490C0008CC
:1000C000490C0008490C0008490C0008490C0008BC
:1000D000490C0008C90B0008490C0008490C00082D
:1000E000490C0008490C0008490C0008490C00089C
:1000F000490C0008490C0008490C0008490C00088C
:10010000490C0008490C0008490C0008490C00087B
:10011000490C0008490C0008490C0008490C00086B
:10012000490C0008490C0008490C0008490C00085B
:1001300000000000000000000000000000000000BF
:1001400000000000000000000000000000000000AF
:10015000000000000000000000000000000000009F
:10016000000000000000000000000000000000008F
:10017000000000000000000000000000000000007F
:10018000000000000000000000000000000000006F
:10019000000000000000000000000000000000005F
:1001A000000000000000000000000000000000004F
:1001B000000000000000000000000000000000003F
:1001C000000000000000000000000000000000002F
:1001D000000000000000000000000000000000001F
:0401E0005FF8E0F1F3
:1001E40010B5054C237833B9044B13B10448AFF36D
:1001F40000800123237010BD7C000020000000005B
:100204005016000808B5034B1BB103490348AFF36C
:10021400008008BD00000000800000205016000887
:1002240080F0004002E000BF81F0004142001FBFA7
:100234005FEA410392EA030F7FEA226C7FEA236CB0
:100244006AD04FEA1262D2EB1363C1BFD2184140A5
:1002540048404140B8BF5B42192B88BF704710F03B
:10026400004F40F4000020F07F4018BF404211F0DE
:10027400004F41F4000121F07F4118BF494292EA46
:10028400030F3FD0A2F1010241FA03FC10EB0C0072
:10029400C3F1200301FA03F100F0004302D54942FF
:1002A40060EB4000B0F5000F13D3B0F1807F06D3AC
:1002B40040084FEA310102F10102FE2A51D2B1F1A4
:1002C400004F40EBC25008BF20F0010040EA030099
:1002D4007047490040EB0000013A28BFB0F5000F19
:1002E400EDD2B0FA80FCACF1080CB2EB0C0200FACF
:1002F4000CF0AABF00EBC25052421843BCBFD0401E
:100304001843704792F0000F81F4000106BF80F497
:1003140000000132013BB5E74FEA41037FEA226C5A
:1003240018BF7FEA236C21D092EA030F04D092F025
:10033400000F08BF0846704790EA010F1CBF002059
:10034400704712F07F4F04D1400028BF40F00040B6
:10035400704712F100723CBF00F50000704700F0D6
:10036400004343F0FE4040F4000070477FEA2262FD
:1003740016BF08467FEA23630146420206BF5FEACE
:10038400412390EA010F40F4800070474FF00003CE
:1003940004E000BF10F0004348BF40425FEA000C95
:1003A40008BF704743F0964301464FF000001CE03D
:1003B40050EA010208BF70474FF000030AE000BF93
:1003C40050EA010208BF704711F0004302D54042D1
:1003D40061EB41015FEA010C02BF84460146002043
:1003E40043F0B64308BFA3F18053A3F50003BCFA5E
:1003F4008CF2083AA3EBC25310DB01FA02FC63440B
:1004040000FA02FCC2F12002BCF1004F20FA02F211
:1004140043EB020008BF20F00100704702F1200204
:1004240001FA02FCC2F1200250EA4C0021FA02F265
:1004340043EB020008BF20EADC7070474FF0FF0C6A
:100444001CEAD0521EBF1CEAD15392EA0C0F93EA65
:100454000C0F6FD01A4480EA010C400218BF5FEA07
:1004640041211ED04FF0006343EA501043EA51117A
:10047400A0FB01310CF00040B1F5000F3EBF490074
:1004840041EAD3715B0040EA010062F17F02FD2A78
:100494001DD8B3F1004F40EBC25008BF20F001005B
:1004A400704790F0000F0CF0004C08BF49024CEA72
:1004B400502040EA51207F3AC2BFD2F1FF0340EA04
:1004C400C250704740F400004FF00003013A5DDC75
:1004D40012F1190FDCBF00F000407047C2F10002B6
:1004E400410021FA02F1C2F1200200FA02FC5FEAA3
:1004F400310040F1000053EA4C0308BF20EADC70ED
:10050400704792F0000F00F0004C02BF400010F45E
:10051400000F013AF9D040EA0C0093F0000F01F00B
:10052400004C02BF490011F4000F013BF9D041EA2D
:100534000C018FE70CEAD15392EA0C0F18BF93EA2F
:100544000C0F0AD030F0004C18BF31F0004CD8D159
:1005540080EA010000F00040704790F0000F17BFE0
:1005640090F0004F084691F0000F91F0004F14D026
:1005740092EA0C0F01D142020FD193EA0C0F03D17E
:100584004B0218BF084608D180EA010000F0004081
:1005940040F0FE4040F40000704740F0FE4040F45C
:1005A400400070474FF0FF0C1CEAD0521EBF1CEAFB
:1005B400D15392EA0C0F93EA0C0F69D0A2EB030219
:1005C40080EA010C49024FEA402037D04FF08053B3
:1005D40043EA111143EA10130CF000408B4238BF78
:1005E4005B0042F17D024FF4000C8B4224BF5B1A86
:1005F40040EA0C00B3EB510F24BFA3EB510340EAD4
:100604005C00B3EB910F24BFA3EB910340EA9C0081
:10061400B3EBD10F24BFA3EBD10340EADC001B01F1
:1006240018BF5FEA1C1CE0D1FD2A3FF650AF8B4295
:1006340040EBC25008BF20F0010070470CF0004CA2
:100644004CEA50207F32C2BFD2F1FF0340EAC250CD
:10065400704740F400004FF00003013A37E792F08E
:10066400000F00F0004C02BF400010F4000F013AEC
:10067400F9D040EA0C0093F0000F01F0004C02BFE7
:10068400490011F4000F013BF9D041EA0C0195E750
:100694000CEAD15392EA0C0F08D142027FF47DAFE9
:1006A40093EA0C0F7FF470AF084676E793EA0C0FD9
:1006B40004D14B023FF44CAF08466EE730F0004CD7
:1006C40018BF31F0004CCAD130F000427FF45CAF67
:1006D40031F000437FF43CAF5FE700BF42000ED22D
:1006E400B2F1FE4F0BD34FF09E03B3EB126209D469
:1006F4004FEA002343F0004323FA02F070474FF01F
:100704000000704712F1610F01D1420202D14FF093
:10071400FF3070474FF00000704700BF40F0BF60EB
:1007240040F40030014BD860704700BF00ED00E09A
:10073400C378FBB1154BDA68D243C2F30222C2F18B
:10074400040C0F2323FA02F2417801FA0CF18378A6
:1007540013400B431B010278DBB20D490A4482F8B3
:100764000033037803F01F005B090122824041F843
:1007740023207047037803F01F015B0901228A409C
:100784002033034941F82320704700BF00ED00E007
:1007940000E100E0042806D04FF0E022136923F0C2
:1007A4000403136170474FF0E022136943F004031C
:1007B4001361704710B4294B5B6803F00C03042BDE
:1007C4002BD0082B2CD013B1254B036001E0244B14
:1007D400036022494B68C3F30313224CE35CDAB28F
:1007E4000368D34043604A68C2F30222A25CD2B2D7
:1007F40023FA02F282604A68C2F3C222A25CD2B235
:10080400D340C3604A68C2F3813217498A5CD2B2CA
:10081400B3FBF2F3036110BC7047114B0360D8E7DC
:100824000E4A53685268C3F38343023312F4803F81
:1008340004D10E4A02FB03F30360CAE7074A526875
:1008440012F4003F04D0094A02FB03F30360C0E73B
:10085400034A02FB03F30360BBE700BF001002403E
:1008640000127A00040000200000002000093D006E
:10087400C1F3421C01F01F01012303FA01F19C455D
:1008840008D0BCF1020F07D014303AB10368194301
:10089400016070470C30F8E71030F6E7036823EA8C
:1008A400010101607047000082B0002301930093AE
:1008B4002C4A136843F4803313602A4B1B6803F4F7
:1008C40000330093019B01330193009B1BB9019BEF
:1008D400B3F5A06FF1D1234B1B6813F4003F06D08E
:1008E40001230093009B012B04D002B07047002326
:1008F4000093F7E71C4B1A6842F010021A601A685A
:1009040022F003021A601A6842F002021A60A3F588
:1009140080535A685A605A685A605A6842F480622E
:100924005A605A6822F47C125A605A6842F4E812F7
:100934005A601A6842F080721A600A4B1B6813F0FE
:10094400007FFAD0074B5A6822F003025A605A68B3
:1009540042F002025A60034B5B6803F00C03082B5D
:10096400F9D1C2E7001002400020024008B5FFF7A9
:100974009BFF08BD08B5104B1A6842F001021A60CB
:1009840059680E4A0A405A601A6822F0847222F4A6
:1009940080321A601A6822F480221A605A6822F49B
:1009A400FE025A604FF41F029A60FFF7DFFF044B08
:1009B4004FF000629A6008BD001002400000FFF88A
:1009C40000ED00E00D4B1B680D4AA2FB03235B0AFC
:1009D40000FB03F34FF0E0225361002393610123F2
:1009E40013614FF0E0231B6903F00113012BF8D0CE
:1009F4004FF0E02300221A619A617047140000202E
:100A0400D34D62100E4A936943F024039361A2F517
:100A14008432536823F00F0353600A4B196821F49E
:100A240070611960516841F003015160196841F423
:100A3400407119604FF48071116104221A6170478A
:100A4400001002400014014050B1012813D00E4B95
:100A54004FF480721A6103F5406304221A617047EF
:100A640021B1094B4FF480721A617047064B4FF461
:100A740080725A61704719B1044B04221A6170479D
:100A8400024B04225A6170470008014000140140DF
:100A940008B5FFF7B7FF6FF00400FFF77BFE4FF4D4
:100AA400E13000F035F80E4800F044F90021084622
:100AB400FFF7CAFF4FF4FA70FFF784FF012100200B
:100AC400FFF7C2FF00210120FFF7BEFF4FF4FA70C9
:100AD400FFF778FF01210846FFF7B6FFE6E700BFFE
:100AE4006816000800B583B04FF4A060FFF716FE47
:100AF40025238DF8043001238DF805308DF8063058
:100B04008DF8073001A8FFF713FE03B05DF804FB6E
:100B140030B587B0054601A8FFF74CFE049B224878
:100B240003FB00F0FFF732FC04462801FFF72EFC1C
:100B340001462046FFF736FD0546FFF7CFFD84B298
:100B44002046FFF727FC01462846FFF76DFB4FF0D0
:100B54008341FFF773FCFFF7C1FD80B22401A4B207
:100B64000444A4B2114B44F204029A61A3F5843301
:100B74005A6822F47F625A605A6842F496625A6054
:100B84000B4D2B899BB21C432C81FFF7ABFF012239
:100B940040F225512846FFF76BFEAB899BB243F424
:100BA4000053AB8107B030BD40420F00001002403B
:100BB400003801407047038813F0800FFBD189B2DD
:100BC40081807047084B1B8813F0200F00D17047B9
:100BD40010B5054CA088C0B2FFF7ECFF01462046D3
:100BE400FFF7E9FF10BD00BF003801407047FEE782
:100BF400FEE7FEE7FEE77047704770477047000066
:100C0400002103E00A4B5B584350043109480A4B66
:100C140042189A42F6D3094A02E0002342F8043B00
:100C2400074B9A42F9D3FFF7A5FEFFF731FF704750
:100C340008170008000000207C0000207C00002031
:100C4400AC000020FEE703460244934200D1704703
:100C540003F8011BF9E7000070B50E46054618B10C
:100C640083690BB900F044FAAB69AC6813B9284640
:100C740000F03EFA2C4B9C4220D16C68636EDB077B
:100C840005D4A389980502D4A06D00F0CFFAA389F6
:100C940019071DD52369DBB1013EA36816F8011FAE
:100CA400013BA36039BB002B38DA22460A212846CF
:100CB40000F048F8013011D00A2511E01B4B9C428A
:100CC40001D1AC68DAE71A4B9C4208BFEC68D5E75F
:100CD4002146284600F088F80028DDD04FF0FF3583
:100CE400636EDA0705D4A3899B0502D4A06D00F0D6
:100CF4009EFA284670BD002B04DAA2699A4206DCEB
:100D04000A2904D023685A1C22601970C5E72246B8
:100D1400284600F017F80130BFD1DFE70A25236821
:100D24005A1C22601D70DBE7C0160008E01600089C
:100D3400A0160008024B01461868FFF78DBF00BFDC
:100D440018000020F8B50E461446054618B183690C
:100D54000BB900F0CDF9214B9C422BD16C68A369EF
:100D6400A360A3891A072FD523696BB3236920686D
:100D7400F6B2C01A63693746834204DC214628462A
:100D840000F022F930BBA3680130013BA360236863
:100D94005A1C22601E706369834204D0A389DB0756
:100DA40006D50A2E04D12146284600F00DF988B94B
:100DB4003846F8BD0A4B9C4201D1AC68CFE7094BD9
:100DC4009C4208BFEC68CAE72146284600F00CF8AC
:100DD4000028CBD04FF0FF37EAE700BFC016000869
:100DE400E0160008A0160008324B70B51D680646D0
:100DF4000C4625B1AB6913B9284600F079F92E4B9E
:100E04009C420FD16C68A389B4F90C2019072CD427
:100E1400DD0611D40923336042F040034FF0FF3064
:100E2400A3813EE0254B9C4201D1AC68EBE7244B07
:100E34009C4208BFEC68E6E7580712D5616B41B1E4
:100E440004F14403994202D0304600F057FA0023DB
:100E54006363A38923F02403A381002363602369CC
:100E64002360A38943F00803A38123694BB9A389B1
:100E740003F42073B3F5007F03D02146304600F01D
:100E8400FDF9A089B4F90C2010F001030AD0002365
:100E9400A36063695B42A361236943B910F08000D6
:100EA400BAD170BD810758BF6369A360F4E700201D
:100EB400F7E700BF18000020C0160008E01600087D
:100EC400A01600088A89F8B5054610070C4657D4C1
:100ED4004B68002B04DC0B6C002B01DC0020F8BDFC
:100EE400E66A002EFAD0002312F480522F682B6099
:100EF40032D0606DA3895A0705D56368C01A636B45
:100F04000BB1236CC01A00230246E66A2846216A04
:100F1400B047431CA38906D129681D292CD8294A26
:100F2400CA40D60728D5002262602269D90422600B
:100F340004D5421C01D12B6803B96065616B2F6035
:100F44000029CBD004F14403994202D0284600F092
:100F5400D5F900206063C2E7216A01232846B0471F
:100F6400411CC7D12B68002BC4D01D2B01D0162BDC
:100F740001D12F60B2E7A38943F04003A381AEE718
:100F84000F69002FAAD0930718BF00230E6808BF6B
:100F94004B69F61B0F608B60002E9FDD33463A468B
:100FA4002846216AD4F828C0E047002806DCA38933
:100FB4004FF0FF3043F04003A38190E70744361A13
:100FC400EAE700BF0100402038B50B6905460C462E
:100FD40013B90025284638BD18B183690BB900F050
:100FE40087F8144B9C421BD16C68B4F90C30002B6D
:100FF400EFD0626ED00704D4990502D4A06D00F03E
:1010040015F928462146FFF75DFF636E0546DA07AA
:10101400E0D4A3899B05DDD4A06D00F008F9D9E7DD
:10102400054B9C4201D1AC68DFE7044B9C4208BFEE
:10103400EC68DAE7C0160008E0160008A0160008FD
:10104400002310B50446C0E90033C0E904338360CB
:1010540081814366C2818361194608225C30FFF7AF
:10106400F2FD054B24626362044BA362044BE3620A
:10107400044B236310BD00BF6514000887140008E7
:10108400BF140008E3140008014900F0AFB800BF22
:10109400CD0F0008682270B54D1E55430E4605F16C
:1010A400740100F073F9044640B10021C0E9001650
:1010B4000C30A06005F16802FFF7C5FD204670BD45
:1010C400014800F0B3B800BF99000020014800F0C7
:1010D400AEB800BF99000020014800F0A7B800BFD7
:1010E4009A000020014800F0A2B800BF9A00002036
:1010F40010B50446FFF7F0FFA3691BB1BDE810402B
:10110400FFF7F0BFC4E912332365134B134A1B687E
:10111400A262A34208BF0123204608BFA36100F0D6
:101124001FF86060204600F01BF8A060204600F025
:1011340017F800220421E0606068FFF781FF0122B4
:101144000921A068FFF77CFF02221221E068FFF763
:1011540077FF0123A361D1E79C1600088D100008D6
:10116400F8B50746FFF7ACFF1E4B1E68B36913B909
:101174003046FFF7BDFF4836D6E90134013B03D5BD
:1011840033680BB33668F7E7B4F90C50D5B9164B8E
:1011940004F15800E360656600F047F8FFF796FF36
:1011A40008222946C4E90155C4E904552560A5610E
:1011B40004F15C00FFF747FDC4E90D55C4E912557D
:1011C4002046F8BD6834D9E704213846FFF762FFAA
:1011D400044630600028D5D1FFF778FF0C233B602C
:1011E400EEE700BF9C1600080100FFFF2DE9F8435D
:1011F40006468846002700F14804D4E90195B9F170
:10120400010905D52468002CF7D13846BDE8F883D8
:10121400AB89012B07D9B5F90E30013303D0294628
:101224003046C04707436835E9E770477047704761
:1012340070B50E46B1F90E10144600291D4696B03D
:1012440008DA0022B6F90C302A601A0610D44FF4DA
:1012540080630EE06A4600F069F90028F1DB019A28
:1012640002F47042A2F500535A425A412A60EEE752
:1012740040230020236016B070BD00008B8973B535
:101284009D0706460C4607D504F1470323602361F6
:101294000123636102B070BD6A4601ABFFF7C8FF6A
:1012A40000990546304600F071F848B9B4F90C309D
:1012B4009A05EFD423F0030343F00203A381E3E789
:1012C4000D4BB362A389206043F08003A381009B8C
:1012D40020616361019B5BB13046B4F90E1000F0EC
:1012E40037F928B1A38923F0030343F00103A38151
:1012F400A0890543A581CDE78D10000838B50546C2
:10130400002940D051F8043C0C1F002BB8BFE4184E
:1013140000F040F91C4A136833B96360146028462E
:10132400BDE8384000F03CB9A34208D92068211830
:101334008B4201BF19685B6809182160EDE71A4602
:101344005B680BB1A342FAD911685018A0420BD1C3
:1013540020680144501883421160E0D118685B682A
:10136400014411605360DAE702D90C232B60D6E7FD
:10137400206821188B4201BF19685B680918216035
:1013840063605460CBE738BD9C000020F8B5CD1CE9
:1013940025F0030508350C2D38BF0C25002D064615
:1013A40001DBA94203D90C2333600020F8BD00F00F
:1013B400F1F821490A6814469CB9204F3B6823B9C7
:1013C4002146304600F03CF838602946304600F0AB
:1013D40037F8431C23D10C233046336000F0E0F887
:1013E400E3E723685B1B17D40B2B03D923601C444E
:1013F400256004E06368A2420CBF0B605360304672
:1014040000F0CEF804F10B00231D20F00700C21AEF
:10141400CCD01B1AA350C9E722466468CCE7C41C8D
:1014240024F00304A042E3D0211A304600F008F867
:101434000130DDD1CFE700BF9C000020A0000020D8
:1014440038B50023054D044608462B6000F0E8F843
:10145400431C02D12B6803B1236038BDA4000020D3
:1014640010B50C46B1F90E1000F0A0F80028ABBF7F
:10147400636DA3891B1823F48053ACBF6365A381F8
:1014840010BD2DE9F0411F468B890546DB050C464E
:10149400164605D502230022B1F90E1000F068F8B3
:1014A400A389324623F48053A38128463B46B4F9EA
:1014B4000E10BDE8F04100F017B810B50C46B1F9B4
:1014C4000E1000F055F8431CA38915BF606523F482
:1014D400805343F48053A38118BFA38110BDB1F995
:1014E4000E1000F013B8000038B504460846114643
:1014F4000022054D2A601A4600F0A0F8431C02D1D0
:101504002B6803B1236038BDA400002038B5002344
:10151400054D044608462B6000F05AF8431C02D1DE
:101524002B6803B1236038BDA400002038B5002324
:10153400064D0446084611462B6000F051F8431C42
:1015440002D12B6803B1236038BD00BFA400002082
:1015540038B50023054D044608462B6000F048F8D2
:10156400431C02D12B6803B1236038BDA4000020C2
:1015740038B50446084611460022054D2A601A462D
:1015840000F03EF8431C02D12B6803B1236038BD40
:10159400A40000200148FFF749BE00BF98000020C6
:1015A4000148FFF744BE00BF9800002038B5044648
:1015B400084611460022054D2A601A4600F028F814
:1015C400431C02D12B6803B1236038BDA400002062
:1015D4005822024B4FF0FF301A607047A4000020DD
:1015E4005822024B4FF0FF301A607047A4000020CD
:1015F4005822024B00201A60704700BFA40000204C
:101604005822024B4FF0FF301A607047A4000020AC
:101614005822024B4FF0FF301A607047A40000209C
:10162400044A05491368002B08BF0B461844106090
:1016340018467047A8000020B00000205822024B32
:101644004FF0FF301A607047A4000020F8B500BFC7
:10165400F8BC08BC9E467047F8B500BFF8BC08BC8F
:041664009E467047E7
:1016680048656C6C6F2C7468697320697320416ECF
:101678006F6F6C7621205E2D5E200A2077656C6383
:101688006F6D6520746F206D79206368616E6E657B
:101698006C2100001C000020000000000000000079
:1016A8000000000000000000000000000000000032
:1016B8000000000000000000000000000000000022
:1016C8000000000000000000000000000000000012
:1016D8000000000000000000000000000000000002
:1016E80000000000000000000000000000000000F2
:0816F8000000000000000000EA
:0417000009020008D2
:04170400E5010008F3
:1017080002040608000000000102030401020304A9
:101718000607080900A24A041C0000200000000077
:10172800C0160008E0160008A01600080000000017
:1017380000000000000000000000000000000000A1
:101748000000000000000000000000000000000091
:101758000000000000000000000000000000000081
:101768000000000000000000000000000000000071
:0C17780000000000000000000000000065
:0400000508000C05DE
:00000001FF
