:020000040800F2
:1000000000C00020F90700083D0800083D0800086E
:100010003D0800083D0800083D08000800000000F9
:100020000000000000000000000000003D08000883
:100030003D080008000000003D0800083D080008D9
:100040003D0800083D0800083D0800083D0800087C
:100050003D0800083D0800083D0800083D0800086C
:100060003D0800083D0800083D0800083D0800085C
:100070003D0800083D0800083D0800083D0800084C
:100080003D0800083D0800083D0800083D0800083C
:100090003D0800083D0800083D0800083D0800082C
:1000A0003D0800083D0800083D0800083D0800081C
:1000B0003D0800083D0800083D0800083D0800080C
:1000C0003D0800083D0800083D0800083D080008FC
:1000D0003D080008D10700083D0800083D08000859
:1000E0003D0800083D0800083D0800083D080008DC
:1000F0003D0800083D0800083D0800083D080008CC
:100100003D0800083D0800083D0800083D080008BB
:100110003D0800083D0800083D0800083D080008AB
:100120003D0800083D0800083D0800083D0800089B
:1001300000000000000000000000000000000000BF
:1001400000000000000000000000000000000000AF
:10015000000000000000000000000000000000009F
:10016000000000000000000000000000000000008F
:10017000000000000000000000000000000000007F
:10018000000000000000000000000000000000006F
:10019000000000000000000000000000000000005F
:1001A000000000000000000000000000000000004F
:1001B000000000000000000000000000000000003F
:1001C000000000000000000000000000000000002F
:1001D000000000000000000000000000000000001F
:0401E0005FF8E0F1F3
:1001E40010B5054C237833B9044B13B10448AFF36D
:1001F40000800123237010BD1800002000000000BF
:100204004008000808B5034B1BB103490348AFF38A
:10021400008008BD000000001C0000204008000809
:1002240040F0BF6040F40030014BD860704700BF1D
:1002340000ED00E0C378FBB1154BDA68D243C2F39A
:100244000222C2F1040C0F2323FA02F2417801FACC
:100254000CF1837813400B431B010278DBB20D4988
:100264000A4482F80033037803F01F005B0901227B
:10027400824041F823207047037803F01F015B0993
:1002840001228A402033034941F82320704700BFEC
:1002940000ED00E000E100E0042806D04FF0E02289
:1002A400136923F00403136170474FF0E0221369CC
:1002B40043F00403136170470D4B1A6822F4803233
:1002C4001A601A6822F480221A60B0F5803F03D0C5
:1002D400B0F5802F06D07047054A136843F4803385
:1002E40013607047024A136843F4A02313607047F5
:1002F4000010024010B4294B5B6803F00C03042B7C
:100304002BD0082B2CD013B1254B036001E0244BD8
:10031400036022494B68C3F30313224CE35CDAB253
:100324000368D34043604A68C2F30222A25CD2B29B
:1003340023FA02F282604A68C2F3C222A25CD2B2F9
:10034400D340C3604A68C2F3813217498A5CD2B28F
:10035400B3FBF2F3036110BC7047114B0360D8E7A1
:100364000E4A53685268C3F38343023312F4803F46
:1003740004D10E4A02FB03F30360CAE7074A52683A
:1003840012F4003F04D0094A02FB03F30360C0E700
:10039400034A02FB03F30360BBE700BF0010024003
:1003A40000127A00040000200000002000093D0033
:1003B40030B587B004460D46038A9BB2CA8823F43D
:1003C40040531343038283899BB2898828896A89AD
:1003D40001430A4323F4B05323F00C031343A381D2
:1003E400A38A9BB2AA8923F440731343A38201A86E
:1003F400FFF780FF1D4B9C4224D0039BA28912F47B
:10040400004F21D103EB830303EB83032A6892009B
:10041400B3FBF2F3164AA2FB031252091101642042
:1004240002FB1033A28912F4004F16D11B013233A0
:100434000F4AA2FB0323C3F343130B439BB2238151
:1004440007B030BD049BD9E703EB830303EB8303BD
:100454002A685200B3FBF2F3DCE7DB003233044AD0
:10046400A2FB0323C3F342130B43E7E70038014025
:100474001F85EB51C1F30801818070478088C0F368
:10048400080070470388194201D0012070470020FA
:100494007047C1F3421201F01F0C012303FA0CF35D
:1004A400012A0FD0022A11D0828A92B21340090A7B
:1004B400012202FA01F1028892B20A4053B15AB9F8
:1004C40000207047828992B21340F0E7028A92B208
:1004D4001340ECE7002070470120704782B00023EE
:1004E400019300932C4A136843F4803313602A4B1E
:1004F4001B6803F400330093019B01330193009BB9
:100504001BB9019BB3F5A06FF1D1234B1B6813F406
:10051400003F06D001230093009B012B04D002B0BE
:10052400704700230093F7E71C4B1A6842F010024F
:100534001A601A6822F003021A601A6842F0020272
:100544001A60A3F580535A685A605A685A605A6808
:1005540042F480625A605A6822F47C125A605A68E3
:1005640042F4E8125A601A6842F080721A600A4B28
:100574001B6813F0007FFAD0074B5A6822F003027D
:100584005A605A6842F002025A60034B5B6803F0F7
:100594000C03082BF9D1C2E70010024000200240EE
:1005A40008B5FFF79BFF08BD08B5104B1A6842F069
:1005B40001021A6059680E4A0A405A601A6822F009
:1005C400847222F480321A601A6822F480221A603B
:1005D4005A6822F4FE025A604FF41F029A60FFF731
:1005E400DFFF044B4FF000629A6008BD0010024028
:1005F4000000FFF800ED00E00D4B1B680D4AA2FB64
:1006040003235B0A00FB03F34FF0E0225361002352
:100614009361012313614FF0E0231B6903F001137D
:10062400012BF8D04FF0E02300221A619A61704741
:1006340014000020D34D62100D4A936943F048031F
:100644009361A2F58232136823F470031360094B9B
:10065400196821F470011960116841F440111160A6
:10066400196841F440111960202111611961704722
:10067400001002400018014040B101280FD020238F
:100684000B4A136102F540621361704719B1084BBC
:1006940020221A617047064B20225A61704719B113
:1006A400044B20221A617047024B20225A61704782
:1006B400000C01400018014008B54FF48030FFF7EA
:1006C400FBFD6FF00400FFF7E7FDFFF7B5FF4FF404
:1006D400E13000F021F80E490E4800F05DF80021E9
:1006E4000846FFF7C9FF4FF4FA70FFF785FF0121B1
:1006F4000020FFF7C1FF00210120FFF7BDFF4FF4E9
:10070400FA70FFF779FF01210846FFF7B5FFE6E726
:10071400580800080038014010B586B01C4A936997
:1007240043F4804343F004039361A2F58432536895
:1007340043F49663536002900023ADF814300C2206
:10074400ADF81220ADF81030ADF80E30ADF80C3025
:10075400104C02A92046FFF72BFE4FF4A060FFF7D0
:100764005FFD25238DF8043001238DF805308DF8C5
:1007740006308DF8073001A8FFF75CFDA3899BB212
:1007840043F4005343F02003A38106B010BD00BF1F
:10079400001002400038014070B506460D460024A2
:1007A400094B1B8813F0800FFAD0295D3046FFF700
:1007B40061FE01342B5D002BF2D140213046FFF75E
:1007C40061FE0028F9D070BD0038014010B540F238
:1007D40025510748FFF75DFE00B910BD044C2046C3
:1007E400FFF74CFEC1B22046FFF744FEF5E700BF19
:1007F40000380140002103E00A4B5B5843500431A8
:1008040009480A4B42189A42F6D3094A02E00023E7
:1008140042F8043B074B9A42F9D3FFF7C5FEFFF7B2
:100824004BFF7047780800080000002018000020E3
:100834001800002034000020FEE70000F8B500BFD7
:10084400F8BC08BC9E467047F8B500BFF8BC08BCAD
:040854009E46704705
:1008580077656C636F6D6520746F206D79206368B0
:08086800616E6E656C21000059
:040870000902000871
:04087400E501000892
:100878000204060800000000010203040102030448
:080888000607080900A24A045A
:04000005080007F9EF
:00000001FF
