:020000040800F2
:1000000090060020CD010008410300088D02000881
:100010003D03000887020008C50600080000000034
:10002000000000000000000000000000C5040008FF
:100030008B02000800000000ED030008D90500084D
:10004000E7010008E7010008E7010008E7010008F0
:10005000E7010008E7010008E7010008E7010008E0
:10006000E7010008E7010008E7010008E7010008D0
:10007000E7010008E7010008E7010008E7010008C0
:10008000E7010008E7010008E7010008E7010008B0
:10009000E7010008E7010008E7010008E7010008A0
:1000A000E7010008E7010008E7010008E701000890
:1000B000E7010008E7010008E7010008E701000880
:1000C000E7010008E7010008E7010008E701000870
:1000D000E701000865060008E7010008E7010008DD
:1000E000E7010008E7010008E7010008E701000850
:1000F000E7010008E7010008E7010008E701000840
:10010000E7010008E7010008E7010008E70100082F
:10011000E7010008E7010008E7010008E70100081F
:10012000E7010008E7010008E7010008E70100080F
:1001300000F002F800F03AF80AA090E8000C8244BF
:100140008344AAF10107DA4501D100F02FF8AFF29C
:10015000090EBAE80F0013F0010F18BFFB1A43F0A5
:1001600001031847040C0000240C0000103A24BFBF
:1001700078C878C1FAD8520724BF30C830C144BF0C
:1001800004680C607047000000230024002500264E
:10019000103A28BF78C1FBD8520728BF30C148BFEA
:1001A0000B6070471FB51FBD10B510BD00F031F8D2
:1001B0001146FFF7F7FF00F0ABFA00F04FF803B479
:1001C000FFF7F2FF03BC00F057F800000948804732
:1001D00009480047FEE7FEE7FEE7FEE7FEE7FEE729
:1001E000FEE7FEE7FEE7FEE704480549054A064B41
:1001F00070470000DD050008310100089000002074
:100200009006002090020020900200207047704766
:100210007047754600F02CF8AE4605006946534617
:1002200020F00700854618B020B5FFF7DDFFBDE8D8
:1002300020404FF000064FF000074FF000084FF04D
:10024000000B21F00701AC46ACE8C009ACE8C009DE
:10025000ACE8C009ACE8C0098D46704710B504464B
:10026000AFF300802046BDE81040FFF7A8BF0000B4
:10027000004870472C00002001491820ABBEFEE763
:1002800026000200704700BFFEE7704700BFFEE790
:100290001348806940F024001149886111480068C2
:1002A00020F00C000F4908600F48006820F44060FF
:1002B0000D4908600B48006840F0030009490860D8
:1002C0000948006840F440700749086088150549EE
:1002D0000C310860042004491031086070470000A8
:1002E00000100240040801400014014010B1012830
:1002F00016D10BE021B14FF480720E4B1A6004E06E
:100300004FF480720B4B1B1D1A6011E019B10422CF
:10031000094B1A6003E00422074B1B1D1A6007E01B
:100320004FF48072034B1A600422034B1A6000BF23
:1003300000BF7047100801401014014000BFFEE7E5
:10034000704708B54FF4A06000F046F825208DF8FE
:10035000000001208DF801008DF802008DF80300E7
:10036000684600F001F808BD70B5002100230F2297
:10037000C47804B3154C246804F4E064C4F5E06464
:10038000210AC1F10403CA40447804FA03F18478D5
:100390001440214309010E4C0678A155047804F05D
:1003A0001F050124AC4005786D11AD0005F1E02575
:1003B000C5F8004109E0047804F01F050124AC40B1
:1003C000044D0678761145F8264070BD0CED00E02E
:1003D00000E400E080E100E002490143024A1160CC
:1003E000704700000000FA050CED00E070470000C7
:1003F00030B500210022002400232D4D6D6805F04A
:100400000C0121B1042905D0082923D105E0294D8B
:10041000056022E0274D05601FE0254D6D6805F45D
:100420007012234D6D6805F48034022505EB92426D
:100430001CB9214D554305600BE01D4D6D6805F459
:1004400000351DB11C4D5543056002E0194D554363
:10045000056002E0174D056000BF00BF144D6D68D8
:1004600005F0F0010909154D6B5C0568DD4045603C
:100470000F4D6D6805F4E061090A104D6B5C45682D
:10048000DD4085600A4D6D6805F46051C90A0B4D69
:100490006B5C4568DD40C560054D6D6805F4404105
:1004A000890B074D6B5CC568B5FBF3F5056130BD85
:1004B0000010024000127A0000093D0014000020E4
:1004C00024000020704710B500F002F810BD0000B5
:1004D0000CB50020019000903348006840F4803053
:1004E0003149086000BF3048006800F400300090D7
:1004F0000198401C0190009818B90198B0F5A06FC0
:10050000F1D12948006800F4003010B101200090BA
:1005100001E0002000900098012843D123480068A2
:1005200040F01000214908600846006820F00300F0
:1005300008600846006840F0020008601A484068F9
:10054000194948600846406848600846406840F4D9
:10055000806048600846406820F47C104860084687
:10056000406840F4E81048600846006840F0807039
:10057000086000BF0C48006800F000700028F9D047
:100580000948406820F00300074948600846406871
:1005900040F00200486000BF0348406800F00C00D3
:1005A0000828F9D10CBD00000010024000200240D4
:1005B000042808D14FF0E021096941F004014FF00F
:1005C000E022116107E04FF0E021096921F0040108
:1005D0004FF0E022116170477047000010B51348DA
:1005E000006840F001001149086008464068104961
:1005F00008400E494860084600680E4908400B490B
:1006000008600846006820F48020086008464068BA
:1006100020F4FE0048604FF41F008860FFF753FF8E
:100620004FF000600449086010BD00000010024057
:100630000000FFF8FFFFF6FE08ED00E000B50848F7
:10064000008800F0200050B10548001D0088C2B2AB
:10065000104600F00FF802460148001D028000BD60
:100660000038014010B502480068804710BD000006
:1006700028000020014608467047F0B503460024D4
:1006800000260025002040F66A17B94200D100BFBD
:100690001846C1F3421401F01F06012707FA06F5B8
:1006A000012C01D10C3004E0022C01D1103000E00B
:1006B00014301AB107682F43076002E00768AF43A0
:1006C0000760F0BD00BFFEE70146104A1268D2087D
:1006D0004FF47A73B2FBF3F24A434FF0E0235A61CE
:1006E00000229A6101221A6100BF4FF0E0221069D6
:1006F00000F001021AB100F48032002AF5D0002285
:100700004FF0E0231A619A6170470000000000205A
:1007100000BFFFF7BDFD6FF00400FFF749FF4FF486
:10072000E13000F01BF817E000210846FFF7DEFD7E
:100730004FF4FA70FFF7C8FF01210020FFF7D6FD44
:1007400000210120FFF7D2FD4FF4FA70FFF7BCFF44
:1007500001210846FFF7CAFDE6E700002DE9F04F4A
:1007600085B005466846FFF743FE039F280100F069
:100770009BF98146264907FB01F000F095F9824676
:10078000494600F0AFF80646304600F06DF984B2F5
:10079000204600F089F98346314600F065FA82462A
:1007A0004FF0834100F094F9814600F05DF98046F6
:1007B0004FF6FF7000EA041404EB080084B244F220
:1007C0000400144988611448006820F47F601249CD
:1007D00008600846006840F4966008600F4800888A
:1007E00020430E490880FFF7ACFD012240F225515D
:1007F0000A480838FFF741FF0848001D008840F408
:1008000000500649091D088005B0BDE8F08F0000C2
:1008100040420F0000100240040801400838014027
:1008200090EA010F48BF81F0004100F12E82421A88
:100830003CBF801A89184FEAD0524FF07F4C1CEA17
:10084000410FA2EBD15318BF9CEA026F00F03B802E
:100850004FF0004C4CEA00204CEA012121FA03FC45
:1008600010EB0C0C1ED202F1FF325FEA1C2040EBB1
:10087000C25038BF70471CF07F0F4FEA400C18BFC2
:10088000BCF17F4F38BF7047C3F12003994008BFC8
:1008900020F00100BCF17F4F38BF7047A0F1C0408D
:1008A00000F0DDB94FEA3C00000A40EBC25028BF1F
:1008B0001CF0FF0F4FEA400CE6D018BFBCF17F4F91
:1008C00038BF7047EAE79CEA026F05D010EA5C0F78
:1008D00008BF00F00040704710B500F07AF900BF83
:1008E00064FBBE3E4FF47F0C1CEAD0121EBF1CEA14
:1008F000D11392EA0C0F93EA0C0F00F0858090EA76
:10090000010F48BF42F4807240F4000C41F4000033
:100910002CF07F4120F07F4000B58142A2EB030222
:100920000FF2081CACEB504EC0F100009EF800E046
:100930004FEA4E0E00FB0EFC38BF49004FEA2C1C5C
:1009400002F5FA020CFB0EF34FEACE1E4FEA112C11
:100950004FEAC1210EEB635E42EB22420EFB0CFC20
:100960004FEA1C5300FB03114FEA112C4FEA0131EF
:100970000EFB0CFC4FEADC4C00FB0C11C14228BF03
:1009800009184CEB03335DF804EB10EB410143EB2A
:10099000C250B2F57C0F38BF704729D512F0F00F66
:1009A0001CBF00F1C04000F000407047008182830E
:1009B0008485868788898B8C8D8E8F91929395966E
:1009C00097999A9C9D9FA0A2A3A5A7A8AAACAEB0F8
:1009D000B2B3B5B7B9BCBEC0C2C5C7C9CCCED1D4FD
:1009E000D7D9DCDFE2E6E9ECF0F3F7FAFE0000002D
:1009F0004FEA400C0CF1807CBCF17E4F28BF704761
:100A0000B0F1C04000F02BB990EA010F0CEAD1130D
:100A100048BF42F48072624538BF634507D213F481
:100A20007F0F16D080EA010000F00040704710B53B
:100A300000F0CFF8097EFC3E00F005B880EA010026
:100A400000F00040704780EA010000F0004000F034
:100A500006B912F47F0F04BF0248704780EA010014
:100A600000F0FDB80000C07FC10DD1F19E0206DB91
:100A70004FEA002343F0004323FA02F0704700429C
:100A800007D54FEA4001B1F1FE4F02D24FF000000E
:100A9000704710B500F09DF84992248000207047FF
:100AA0006FEA200070470000B0FA80F310FA03F2FA
:100AB000C3F19D030AD0D90501EB1220530638BFBC
:100AC000704700F1010008BF20F0010070470000EE
:100AD0004FF47F0C1CEAD0121EBF1CEAD11392EA1D
:100AE0000C0F93EA0C0F00F0478090EA010F48BF0B
:100AF00042F480724FF0004C4CEA00204CEA012195
:100B000002EB0302A0FB0113A2F50002002918BFAB
:100B100043F001035B0028BF4FEA330342EB22425C
:100B20005FEA132C4CEBC2502EBFBCEB436FB2F507
:100B30007C0F70474FEA036CBCF1004F08BF20F0F8
:100B40000100B2F57C0F38BF70470BD582F0FF0271
:100B500012F5803FC8BF704700F1C040D8BF00F019
:100B60000040704700F5000C5FEA4C0C48BF70472E
:100B7000B0F1C04000F073B890EA010F0CEAD11355
:100B800048BF42F48072624538BF634504D280EAB0
:100B9000010000F00040704710B500F01AF800BFE7
:100BA0008900013E00F007B800F009B85FEA410C87
:100BB0005FEA1C6C08D080EA010000F050B85FEAE0
:100BC000400C5FEA1C6CF6D14FF00040A0F58000AD
:100BD00070470EF1020E2EF0030E5EF8044B244215
:100BE00004D44FEA4102B2F17F4F11D84FEA4003DB
:100BF000B3F17F4F0CD80ED14FEAD07CB2F17F4FCA
:100C00000CEB4C0C0CF1020C08BF4CEBD17C04E05B
:100C10004FF0080C01E04FEAD17C0CEB4C0324FAB6
:100C200003F404F00704B4F1040C06D20EEB840CB8
:100C3000BDE810404CF0010C6047DFE80CF00708FD
:100C400002024FF00040A0F5800010BD08464200AF
:100C500018BFD2F1807288BF00F0004010BDFF21A4
:100C600041EAD050C005704780F0004090EA010F83
:100C70007FF5DDAD81F0004100F007B890EA010F8B
:100C800048BF81F000413FF5D2AD421A04D882F04E
:100C90000042A0EB020011444FEAD0524FF07F4CCB
:100CA0001CEA410FA2EBD15318BF9CEA026F4AD055
:100CB0004FF0004C4CEA00204CEA012121FA03FCE1
:100CC000B0EB0C0C0FD412F0FE0F36D05FEA4C00E4
:100CD0001DD5001240EBC25038BF70471CF03F0FCB
:100CE00018BF70470BE0A2F101025FEA1C2040EB45
:100CF000C25038BF70471CF07F0F18BF7047C3F158
:100D00002003994014BF401E20F001007047800866
:100D10004FEA122308BF7047B0FA80FCA2EB0C0226
:100D2000CCF1280C60FA0CF093EA122F04BF00EB10
:100D3000C25070474FEAC3707047130A5FEADC1075
:100D400008BF7047F6E79CEA026F04D010EA5C0F18
:100D500008BF0020704710B5FFF73BFF40DFF63EAD
:100D600081F0004070470000880D0008000000205E
:100D70002C0000006C010008B40D00082C000020BD
:100D8000640600008801000800A24A040000000078
:100D9000000000000102030406070809000000002B
:100DA00001020304010203040607080902040608FD
:040DB0003D060008F4
:0400000508000131BD
:00000001FF
